{"contracts/PolygonDAO.sol":{"PolygonDAO":{"abi":[{"anonymous":false,"inputs":[{"indexed":true,"internalType":"address","name":"member","type":"address"}],"name":"NewMember","type":"event"},{"anonymous":false,"inputs":[{"indexed":true,"internalType":"uint256","name":"proposalId","type":"uint256"},{"indexed":true,"internalType":"address","name":"proposer","type":"address"},{"indexed":false,"internalType":"string","name":"proposalText","type":"string"},{"indexed":false,"internalType":"uint256","name":"votingEndTime","type":"uint256"}],"name":"NewProposal","type":"event"},{"anonymous":false,"inputs":[{"indexed":true,"internalType":"address","name":"previousOwner","type":"address"},{"indexed":true,"internalType":"address","name":"newOwner","type":"address"}],"name":"OwnershipTransferred","type":"event"},{"anonymous":false,"inputs":[{"indexed":true,"internalType":"uint256","name":"proposalId","type":"uint256"},{"indexed":true,"internalType":"address","name":"voter","type":"address"},{"indexed":false,"internalType":"bool","name":"vote","type":"bool"},{"indexed":false,"internalType":"uint256","name":"yesVotes","type":"uint256"},{"indexed":false,"internalType":"uint256","name":"noVotes","type":"uint256"}],"name":"ProposalVoted","type":"event"},{"inputs":[{"internalType":"string","name":"_proposalText","type":"string"},{"internalType":"uint256","name":"_votingEndTime","type":"uint256"}],"name":"createProposal","outputs":[],"stateMutability":"nonpayable","type":"function"},{"inputs":[{"internalType":"uint256","name":"_proposalId","type":"uint256"}],"name":"executeProposal","outputs":[],"stateMutability":"nonpayable","type":"function"},{"inputs":[],"name":"joinDAO","outputs":[],"stateMutability":"nonpayable","type":"function"},{"inputs":[{"internalType":"address","name":"","type":"address"}],"name":"members","outputs":[{"internalType":"bool","name":"isMember","type":"bool"},{"internalType":"uint256","name":"joinDate","type":"uint256"}],"stateMutability":"view","type":"function"},{"inputs":[],"name":"owner","outputs":[{"internalType":"address","name":"","type":"address"}],"stateMutability":"view","type":"function"},{"inputs":[{"internalType":"uint256","name":"","type":"uint256"}],"name":"proposals","outputs":[{"internalType":"address","name":"proposer","type":"address"},{"internalType":"string","name":"proposalText","type":"string"},{"internalType":"uint256","name":"votingEndTime","type":"uint256"},{"internalType":"bool","name":"executed","type":"bool"},{"internalType":"uint256","name":"yesVotes","type":"uint256"},{"internalType":"uint256","name":"noVotes","type":"uint256"}],"stateMutability":"view","type":"function"},{"inputs":[],"name":"renounceOwnership","outputs":[],"stateMutability":"nonpayable","type":"function"},{"inputs":[{"internalType":"address","name":"newOwner","type":"address"}],"name":"transferOwnership","outputs":[],"stateMutability":"nonpayable","type":"function"},{"inputs":[{"internalType":"uint256","name":"_proposalId","type":"uint256"},{"internalType":"bool","name":"_vote","type":"bool"}],"name":"voteOnProposal","outputs":[],"stateMutability":"nonpayable","type":"function"}],"devdoc":{"kind":"dev","methods":{"owner()":{"details":"Returns the address of the current owner."},"renounceOwnership()":{"details":"Leaves the contract without owner. It will not be possible to call `onlyOwner` functions anymore. Can only be called by the current owner. NOTE: Renouncing ownership will leave the contract without an owner, thereby removing any functionality that is only available to the owner."},"transferOwnership(address)":{"details":"Transfers ownership of the contract to a new account (`newOwner`). Can only be called by the current owner."}},"version":1},"evm":{"bytecode":{"linkReferences":{},"object":"608060405234801561001057600080fd5b5061002d61002261003260201b60201c565b61003a60201b60201c565b6100fe565b600033905090565b60008060009054906101000a900473ffffffffffffffffffffffffffffffffffffffff169050816000806101000a81548173ffffffffffffffffffffffffffffffffffffffff021916908373ffffffffffffffffffffffffffffffffffffffff1602179055508173ffffffffffffffffffffffffffffffffffffffff168173ffffffffffffffffffffffffffffffffffffffff167f8be0079c531659141344cd1fd0a4f28419497f9722a3daafe3b4186f6b6457e060405160405180910390a35050565b611a2d8061010d6000396000f3fe608060405234801561001057600080fd5b50600436106100935760003560e01c806335facf781161006657806335facf7814610136578063715018a6146101525780638da5cb5b1461015c578063f2fde38b1461017a578063f63d13d71461019657610093565b8063013cf08b1461009857806308ae4b0c146100cd5780630d61b519146100fe5780631614665c1461011a575b600080fd5b6100b260048036038101906100ad9190610f75565b6101a0565b6040516100c4969594939291906110a6565b60405180910390f35b6100e760048036038101906100e2919061113a565b6102a1565b6040516100f5929190611167565b60405180910390f35b61011860048036038101906101139190610f75565b6102d2565b005b610134600480360381019061012f91906111bc565b6103cb565b005b610150600480360381019061014b9190611331565b610746565b005b61015a610a67565b005b610164610a7b565b604051610171919061138d565b60405180910390f35b610194600480360381019061018f919061113a565b610aa4565b005b61019e610b28565b005b600281815481106101b057600080fd5b90600052602060002090600802016000915090508060000160009054906101000a900473ffffffffffffffffffffffffffffffffffffffff16908060010180546101f9906113d7565b80601f0160208091040260200160405190810160405280929190818152602001828054610225906113d7565b80156102725780601f1061024757610100808354040283529160200191610272565b820191906000526020600020905b81548152906001019060200180831161025557829003601f168201915b5050505050908060020154908060030160009054906101000a900460ff16908060040154908060050154905086565b60016020528060005260406000206000915090508060000160009054906101000a900460ff16908060010154905082565b6102da610c0e565b6000600282815481106102f0576102ef611409565b5b906000526020600020906008020190508060030160009054906101000a900460ff1615610352576040517f08c379a0000000000000000000000000000000000000000000000000000000008152600401610349906114aa565b60405180910390fd5b8060020154421015610399576040517f08c379a000000000000000000000000000000000000000000000000000000000815260040161039090611516565b60405180910390fd5b8060050154816004015411156103c75760018160030160006101000a81548160ff0219169083151502179055505b5050565b600160003373ffffffffffffffffffffffffffffffffffffffff1673ffffffffffffffffffffffffffffffffffffffff16815260200190815260200160002060000160009054906101000a900460ff1661045a576040517f08c379a0000000000000000000000000000000000000000000000000000000008152600401610451906115a8565b60405180910390fd5b6000600283815481106104705761046f611409565b5b90600052602060002090600802019050806002015442106104c6576040517f08c379a00000000000000000000000000000000000000000000000000000000081526004016104bd90611614565b60405180910390fd5b610100816006018054905010610511576040517f08c379a000000000000000000000000000000000000000000000000000000000815260040161050890611680565b60405180910390fd5b6000805b82600601805490508110156105b4573373ffffffffffffffffffffffffffffffffffffffff1683600601828154811061055157610550611409565b5b9060005260206000200160009054906101000a900473ffffffffffffffffffffffffffffffffffffffff1673ffffffffffffffffffffffffffffffffffffffff1614156105a157600191506105b4565b80806105ac906116cf565b915050610515565b5080156105f6576040517f08c379a00000000000000000000000000000000000000000000000000000000081526004016105ed9061178a565b60405180910390fd5b81600601339080600181540180825580915050600190039060005260206000200160009091909190916101000a81548173ffffffffffffffffffffffffffffffffffffffff021916908373ffffffffffffffffffffffffffffffffffffffff160217905550816007018390806001815401808255809150506001900390600052602060002090602091828204019190069091909190916101000a81548160ff02191690831515021790555082156106c85760018260040160008282546106bc91906117aa565b925050819055506106e5565b60018260050160008282546106dd91906117aa565b925050819055505b3373ffffffffffffffffffffffffffffffffffffffff16847f82b8cb75fd367be519fd5f57abcb2dbb773381c00082e94059c4713c4dfdfc05858560040154866005015460405161073893929190611800565b60405180910390a350505050565b600160003373ffffffffffffffffffffffffffffffffffffffff1673ffffffffffffffffffffffffffffffffffffffff16815260200190815260200160002060000160009054906101000a900460ff166107d5576040517f08c379a00000000000000000000000000000000000000000000000000000000081526004016107cc906115a8565b60405180910390fd5b428111610817576040517f08c379a000000000000000000000000000000000000000000000000000000000815260040161080e906118a9565b60405180910390fd5b6000600280549050905060026040518061010001604052803373ffffffffffffffffffffffffffffffffffffffff1681526020018581526020018481526020016000151581526020016000815260200160008152602001600067ffffffffffffffff81111561088957610888611206565b5b6040519080825280602002602001820160405280156108b75781602001602082028036833780820191505090505b508152602001600067ffffffffffffffff8111156108d8576108d7611206565b5b6040519080825280602002602001820160405280156109065781602001602082028036833780820191505090505b50815250908060018154018082558091505060019003906000526020600020906008020160009091909190915060008201518160000160006101000a81548173ffffffffffffffffffffffffffffffffffffffff021916908373ffffffffffffffffffffffffffffffffffffffff1602179055506020820151816001019080519060200190610996929190610d58565b506040820151816002015560608201518160030160006101000a81548160ff0219169083151502179055506080820151816004015560a0820151816005015560c08201518160060190805190602001906109f1929190610dde565b5060e0820151816007019080519060200190610a0e929190610e68565b5050503373ffffffffffffffffffffffffffffffffffffffff16817f6838db3c5996fec3de968e640e7dd8000add88d4b31235fa327d85cdb8ffce5c8585604051610a5a9291906118c9565b60405180910390a3505050565b610a6f610c0e565b610a796000610c8c565b565b60008060009054906101000a900473ffffffffffffffffffffffffffffffffffffffff16905090565b610aac610c0e565b600073ffffffffffffffffffffffffffffffffffffffff168173ffffffffffffffffffffffffffffffffffffffff161415610b1c576040517f08c379a0000000000000000000000000000000000000000000000000000000008152600401610b139061196b565b60405180910390fd5b610b2581610c8c565b50565b60018060003373ffffffffffffffffffffffffffffffffffffffff1673ffffffffffffffffffffffffffffffffffffffff16815260200190815260200160002060000160006101000a81548160ff02191690831515021790555042600160003373ffffffffffffffffffffffffffffffffffffffff1673ffffffffffffffffffffffffffffffffffffffff168152602001908152602001600020600101819055503373ffffffffffffffffffffffffffffffffffffffff167fb4dcb6dd550f27b5917ebf674899ea7046ff91790c6f9f01431617ad39819db260405160405180910390a2565b610c16610d50565b73ffffffffffffffffffffffffffffffffffffffff16610c34610a7b565b73ffffffffffffffffffffffffffffffffffffffff1614610c8a576040517f08c379a0000000000000000000000000000000000000000000000000000000008152600401610c81906119d7565b60405180910390fd5b565b60008060009054906101000a900473ffffffffffffffffffffffffffffffffffffffff169050816000806101000a81548173ffffffffffffffffffffffffffffffffffffffff021916908373ffffffffffffffffffffffffffffffffffffffff1602179055508173ffffffffffffffffffffffffffffffffffffffff168173ffffffffffffffffffffffffffffffffffffffff167f8be0079c531659141344cd1fd0a4f28419497f9722a3daafe3b4186f6b6457e060405160405180910390a35050565b600033905090565b828054610d64906113d7565b90600052602060002090601f016020900481019282610d865760008555610dcd565b82601f10610d9f57805160ff1916838001178555610dcd565b82800160010185558215610dcd579182015b82811115610dcc578251825591602001919060010190610db1565b5b509050610dda9190610f0e565b5090565b828054828255906000526020600020908101928215610e57579160200282015b82811115610e565782518260006101000a81548173ffffffffffffffffffffffffffffffffffffffff021916908373ffffffffffffffffffffffffffffffffffffffff16021790555091602001919060010190610dfe565b5b509050610e649190610f0e565b5090565b82805482825590600052602060002090601f01602090048101928215610efd5791602002820160005b83821115610ece57835183826101000a81548160ff0219169083151502179055509260200192600101602081600001049283019260010302610e91565b8015610efb5782816101000a81549060ff0219169055600101602081600001049283019260010302610ece565b505b509050610f0a9190610f0e565b5090565b5b80821115610f27576000816000905550600101610f0f565b5090565b6000604051905090565b600080fd5b600080fd5b6000819050919050565b610f5281610f3f565b8114610f5d57600080fd5b50565b600081359050610f6f81610f49565b92915050565b600060208284031215610f8b57610f8a610f35565b5b6000610f9984828501610f60565b91505092915050565b600073ffffffffffffffffffffffffffffffffffffffff82169050919050565b6000610fcd82610fa2565b9050919050565b610fdd81610fc2565b82525050565b600081519050919050565b600082825260208201905092915050565b60005b8381101561101d578082015181840152602081019050611002565b8381111561102c576000848401525b50505050565b6000601f19601f8301169050919050565b600061104e82610fe3565b6110588185610fee565b9350611068818560208601610fff565b61107181611032565b840191505092915050565b61108581610f3f565b82525050565b60008115159050919050565b6110a08161108b565b82525050565b600060c0820190506110bb6000830189610fd4565b81810360208301526110cd8188611043565b90506110dc604083018761107c565b6110e96060830186611097565b6110f6608083018561107c565b61110360a083018461107c565b979650505050505050565b61111781610fc2565b811461112257600080fd5b50565b6000813590506111348161110e565b92915050565b6000602082840312156111505761114f610f35565b5b600061115e84828501611125565b91505092915050565b600060408201905061117c6000830185611097565b611189602083018461107c565b9392505050565b6111998161108b565b81146111a457600080fd5b50565b6000813590506111b681611190565b92915050565b600080604083850312156111d3576111d2610f35565b5b60006111e185828601610f60565b92505060206111f2858286016111a7565b9150509250929050565b600080fd5b600080fd5b7f4e487b7100000000000000000000000000000000000000000000000000000000600052604160045260246000fd5b61123e82611032565b810181811067ffffffffffffffff8211171561125d5761125c611206565b5b80604052505050565b6000611270610f2b565b905061127c8282611235565b919050565b600067ffffffffffffffff82111561129c5761129b611206565b5b6112a582611032565b9050602081019050919050565b82818337600083830152505050565b60006112d46112cf84611281565b611266565b9050828152602081018484840111156112f0576112ef611201565b5b6112fb8482856112b2565b509392505050565b600082601f830112611318576113176111fc565b5b81356113288482602086016112c1565b91505092915050565b6000806040838503121561134857611347610f35565b5b600083013567ffffffffffffffff81111561136657611365610f3a565b5b61137285828601611303565b925050602061138385828601610f60565b9150509250929050565b60006020820190506113a26000830184610fd4565b92915050565b7f4e487b7100000000000000000000000000000000000000000000000000000000600052602260045260246000fd5b600060028204905060018216806113ef57607f821691505b60208210811415611403576114026113a8565b5b50919050565b7f4e487b7100000000000000000000000000000000000000000000000000000000600052603260045260246000fd5b7f50726f706f73616c2068617320616c7265616479206265656e2065786563757460008201527f6564000000000000000000000000000000000000000000000000000000000000602082015250565b6000611494602283610fee565b915061149f82611438565b604082019050919050565b600060208201905081810360008301526114c381611487565b9050919050565b7f566f74696e6720686173206e6f7420656e646564000000000000000000000000600082015250565b6000611500601483610fee565b915061150b826114ca565b602082019050919050565b6000602082019050818103600083015261152f816114f3565b9050919050565b7f4f6e6c79206d656d626572732063616e2063616c6c20746869732066756e637460008201527f696f6e0000000000000000000000000000000000000000000000000000000000602082015250565b6000611592602383610fee565b915061159d82611536565b604082019050919050565b600060208201905081810360008301526115c181611585565b9050919050565b7f566f74696e672068617320656e64656400000000000000000000000000000000600082015250565b60006115fe601083610fee565b9150611609826115c8565b602082019050919050565b6000602082019050818103600083015261162d816115f1565b9050919050565b7f4d6178206e756d626572206f6620766f74657273207265616368656400000000600082015250565b600061166a601c83610fee565b915061167582611634565b602082019050919050565b600060208201905081810360008301526116998161165d565b9050919050565b7f4e487b7100000000000000000000000000000000000000000000000000000000600052601160045260246000fd5b60006116da82610f3f565b91507fffffffffffffffffffffffffffffffffffffffffffffffffffffffffffffffff82141561170d5761170c6116a0565b5b600182019050919050565b7f596f75206861766520616c726561647920766f746564206f6e2074686973207060008201527f726f706f73616c00000000000000000000000000000000000000000000000000602082015250565b6000611774602783610fee565b915061177f82611718565b604082019050919050565b600060208201905081810360008301526117a381611767565b9050919050565b60006117b582610f3f565b91506117c083610f3f565b9250827fffffffffffffffffffffffffffffffffffffffffffffffffffffffffffffffff038211156117f5576117f46116a0565b5b828201905092915050565b60006060820190506118156000830186611097565b611822602083018561107c565b61182f604083018461107c565b949350505050565b7f566f74696e6720656e642074696d65206d75737420626520696e20746865206660008201527f7574757265000000000000000000000000000000000000000000000000000000602082015250565b6000611893602583610fee565b915061189e82611837565b604082019050919050565b600060208201905081810360008301526118c281611886565b9050919050565b600060408201905081810360008301526118e38185611043565b90506118f2602083018461107c565b9392505050565b7f4f776e61626c653a206e6577206f776e657220697320746865207a65726f206160008201527f6464726573730000000000000000000000000000000000000000000000000000602082015250565b6000611955602683610fee565b9150611960826118f9565b604082019050919050565b6000602082019050818103600083015261198481611948565b9050919050565b7f4f776e61626c653a2063616c6c6572206973206e6f7420746865206f776e6572600082015250565b60006119c1602083610fee565b91506119cc8261198b565b602082019050919050565b600060208201905081810360008301526119f0816119b4565b905091905056fea2646970667358221220cd9f0fd10c53afbc75b7d533a91a7b4af88e86ebec9a74bcd5211fe10fa6ab9b64736f6c63430008080033","opcodes":"PUSH1 0x80 PUSH1 0x40 MSTORE CALLVALUE DUP1 ISZERO PUSH2 0x10 JUMPI PUSH1 0x0 DUP1 REVERT JUMPDEST POP PUSH2 0x2D PUSH2 0x22 PUSH2 0x32 PUSH1 0x20 SHL PUSH1 0x20 SHR JUMP JUMPDEST PUSH2 0x3A PUSH1 0x20 SHL PUSH1 0x20 SHR JUMP JUMPDEST PUSH2 0xFE JUMP JUMPDEST PUSH1 0x0 CALLER SWAP1 POP SWAP1 JUMP JUMPDEST PUSH1 0x0 DUP1 PUSH1 0x0 SWAP1 SLOAD SWAP1 PUSH2 0x100 EXP SWAP1 DIV PUSH20 0xFFFFFFFFFFFFFFFFFFFFFFFFFFFFFFFFFFFFFFFF AND SWAP1 POP DUP2 PUSH1 0x0 DUP1 PUSH2 0x100 EXP DUP2 SLOAD DUP2 PUSH20 0xFFFFFFFFFFFFFFFFFFFFFFFFFFFFFFFFFFFFFFFF MUL NOT AND SWAP1 DUP4 PUSH20 0xFFFFFFFFFFFFFFFFFFFFFFFFFFFFFFFFFFFFFFFF AND MUL OR SWAP1 SSTORE POP DUP2 PUSH20 0xFFFFFFFFFFFFFFFFFFFFFFFFFFFFFFFFFFFFFFFF AND DUP2 PUSH20 0xFFFFFFFFFFFFFFFFFFFFFFFFFFFFFFFFFFFFFFFF AND PUSH32 0x8BE0079C531659141344CD1FD0A4F28419497F9722A3DAAFE3B4186F6B6457E0 PUSH1 0x40 MLOAD PUSH1 0x40 MLOAD DUP1 SWAP2 SUB SWAP1 LOG3 POP POP JUMP JUMPDEST PUSH2 0x1A2D DUP1 PUSH2 0x10D PUSH1 0x0 CODECOPY PUSH1 0x0 RETURN INVALID PUSH1 0x80 PUSH1 0x40 MSTORE CALLVALUE DUP1 ISZERO PUSH2 0x10 JUMPI PUSH1 0x0 DUP1 REVERT JUMPDEST POP PUSH1 0x4 CALLDATASIZE LT PUSH2 0x93 JUMPI PUSH1 0x0 CALLDATALOAD PUSH1 0xE0 SHR DUP1 PUSH4 0x35FACF78 GT PUSH2 0x66 JUMPI DUP1 PUSH4 0x35FACF78 EQ PUSH2 0x136 JUMPI DUP1 PUSH4 0x715018A6 EQ PUSH2 0x152 JUMPI DUP1 PUSH4 0x8DA5CB5B EQ PUSH2 0x15C JUMPI DUP1 PUSH4 0xF2FDE38B EQ PUSH2 0x17A JUMPI DUP1 PUSH4 0xF63D13D7 EQ PUSH2 0x196 JUMPI PUSH2 0x93 JUMP JUMPDEST DUP1 PUSH4 0x13CF08B EQ PUSH2 0x98 JUMPI DUP1 PUSH4 0x8AE4B0C EQ PUSH2 0xCD JUMPI DUP1 PUSH4 0xD61B519 EQ PUSH2 0xFE JUMPI DUP1 PUSH4 0x1614665C EQ PUSH2 0x11A JUMPI JUMPDEST PUSH1 0x0 DUP1 REVERT JUMPDEST PUSH2 0xB2 PUSH1 0x4 DUP1 CALLDATASIZE SUB DUP2 ADD SWAP1 PUSH2 0xAD SWAP2 SWAP1 PUSH2 0xF75 JUMP JUMPDEST PUSH2 0x1A0 JUMP JUMPDEST PUSH1 0x40 MLOAD PUSH2 0xC4 SWAP7 SWAP6 SWAP5 SWAP4 SWAP3 SWAP2 SWAP1 PUSH2 0x10A6 JUMP JUMPDEST PUSH1 0x40 MLOAD DUP1 SWAP2 SUB SWAP1 RETURN JUMPDEST PUSH2 0xE7 PUSH1 0x4 DUP1 CALLDATASIZE SUB DUP2 ADD SWAP1 PUSH2 0xE2 SWAP2 SWAP1 PUSH2 0x113A JUMP JUMPDEST PUSH2 0x2A1 JUMP JUMPDEST PUSH1 0x40 MLOAD PUSH2 0xF5 SWAP3 SWAP2 SWAP1 PUSH2 0x1167 JUMP JUMPDEST PUSH1 0x40 MLOAD DUP1 SWAP2 SUB SWAP1 RETURN JUMPDEST PUSH2 0x118 PUSH1 0x4 DUP1 CALLDATASIZE SUB DUP2 ADD SWAP1 PUSH2 0x113 SWAP2 SWAP1 PUSH2 0xF75 JUMP JUMPDEST PUSH2 0x2D2 JUMP JUMPDEST STOP JUMPDEST PUSH2 0x134 PUSH1 0x4 DUP1 CALLDATASIZE SUB DUP2 ADD SWAP1 PUSH2 0x12F SWAP2 SWAP1 PUSH2 0x11BC JUMP JUMPDEST PUSH2 0x3CB JUMP JUMPDEST STOP JUMPDEST PUSH2 0x150 PUSH1 0x4 DUP1 CALLDATASIZE SUB DUP2 ADD SWAP1 PUSH2 0x14B SWAP2 SWAP1 PUSH2 0x1331 JUMP JUMPDEST PUSH2 0x746 JUMP JUMPDEST STOP JUMPDEST PUSH2 0x15A PUSH2 0xA67 JUMP JUMPDEST STOP JUMPDEST PUSH2 0x164 PUSH2 0xA7B JUMP JUMPDEST PUSH1 0x40 MLOAD PUSH2 0x171 SWAP2 SWAP1 PUSH2 0x138D JUMP JUMPDEST PUSH1 0x40 MLOAD DUP1 SWAP2 SUB SWAP1 RETURN JUMPDEST PUSH2 0x194 PUSH1 0x4 DUP1 CALLDATASIZE SUB DUP2 ADD SWAP1 PUSH2 0x18F SWAP2 SWAP1 PUSH2 0x113A JUMP JUMPDEST PUSH2 0xAA4 JUMP JUMPDEST STOP JUMPDEST PUSH2 0x19E PUSH2 0xB28 JUMP JUMPDEST STOP JUMPDEST PUSH1 0x2 DUP2 DUP2 SLOAD DUP2 LT PUSH2 0x1B0 JUMPI PUSH1 0x0 DUP1 REVERT JUMPDEST SWAP1 PUSH1 0x0 MSTORE PUSH1 0x20 PUSH1 0x0 KECCAK256 SWAP1 PUSH1 0x8 MUL ADD PUSH1 0x0 SWAP2 POP SWAP1 POP DUP1 PUSH1 0x0 ADD PUSH1 0x0 SWAP1 SLOAD SWAP1 PUSH2 0x100 EXP SWAP1 DIV PUSH20 0xFFFFFFFFFFFFFFFFFFFFFFFFFFFFFFFFFFFFFFFF AND SWAP1 DUP1 PUSH1 0x1 ADD DUP1 SLOAD PUSH2 0x1F9 SWAP1 PUSH2 0x13D7 JUMP JUMPDEST DUP1 PUSH1 0x1F ADD PUSH1 0x20 DUP1 SWAP2 DIV MUL PUSH1 0x20 ADD PUSH1 0x40 MLOAD SWAP1 DUP2 ADD PUSH1 0x40 MSTORE DUP1 SWAP3 SWAP2 SWAP1 DUP2 DUP2 MSTORE PUSH1 0x20 ADD DUP3 DUP1 SLOAD PUSH2 0x225 SWAP1 PUSH2 0x13D7 JUMP JUMPDEST DUP1 ISZERO PUSH2 0x272 JUMPI DUP1 PUSH1 0x1F LT PUSH2 0x247 JUMPI PUSH2 0x100 DUP1 DUP4 SLOAD DIV MUL DUP4 MSTORE SWAP2 PUSH1 0x20 ADD SWAP2 PUSH2 0x272 JUMP JUMPDEST DUP3 ADD SWAP2 SWAP1 PUSH1 0x0 MSTORE PUSH1 0x20 PUSH1 0x0 KECCAK256 SWAP1 JUMPDEST DUP2 SLOAD DUP2 MSTORE SWAP1 PUSH1 0x1 ADD SWAP1 PUSH1 0x20 ADD DUP1 DUP4 GT PUSH2 0x255 JUMPI DUP3 SWAP1 SUB PUSH1 0x1F AND DUP3 ADD SWAP2 JUMPDEST POP POP POP POP POP SWAP1 DUP1 PUSH1 0x2 ADD SLOAD SWAP1 DUP1 PUSH1 0x3 ADD PUSH1 0x0 SWAP1 SLOAD SWAP1 PUSH2 0x100 EXP SWAP1 DIV PUSH1 0xFF AND SWAP1 DUP1 PUSH1 0x4 ADD SLOAD SWAP1 DUP1 PUSH1 0x5 ADD SLOAD SWAP1 POP DUP7 JUMP JUMPDEST PUSH1 0x1 PUSH1 0x20 MSTORE DUP1 PUSH1 0x0 MSTORE PUSH1 0x40 PUSH1 0x0 KECCAK256 PUSH1 0x0 SWAP2 POP SWAP1 POP DUP1 PUSH1 0x0 ADD PUSH1 0x0 SWAP1 SLOAD SWAP1 PUSH2 0x100 EXP SWAP1 DIV PUSH1 0xFF AND SWAP1 DUP1 PUSH1 0x1 ADD SLOAD SWAP1 POP DUP3 JUMP JUMPDEST PUSH2 0x2DA PUSH2 0xC0E JUMP JUMPDEST PUSH1 0x0 PUSH1 0x2 DUP3 DUP2 SLOAD DUP2 LT PUSH2 0x2F0 JUMPI PUSH2 0x2EF PUSH2 0x1409 JUMP JUMPDEST JUMPDEST SWAP1 PUSH1 0x0 MSTORE PUSH1 0x20 PUSH1 0x0 KECCAK256 SWAP1 PUSH1 0x8 MUL ADD SWAP1 POP DUP1 PUSH1 0x3 ADD PUSH1 0x0 SWAP1 SLOAD SWAP1 PUSH2 0x100 EXP SWAP1 DIV PUSH1 0xFF AND ISZERO PUSH2 0x352 JUMPI PUSH1 0x40 MLOAD PUSH32 0x8C379A000000000000000000000000000000000000000000000000000000000 DUP2 MSTORE PUSH1 0x4 ADD PUSH2 0x349 SWAP1 PUSH2 0x14AA JUMP JUMPDEST PUSH1 0x40 MLOAD DUP1 SWAP2 SUB SWAP1 REVERT JUMPDEST DUP1 PUSH1 0x2 ADD SLOAD TIMESTAMP LT ISZERO PUSH2 0x399 JUMPI PUSH1 0x40 MLOAD PUSH32 0x8C379A000000000000000000000000000000000000000000000000000000000 DUP2 MSTORE PUSH1 0x4 ADD PUSH2 0x390 SWAP1 PUSH2 0x1516 JUMP JUMPDEST PUSH1 0x40 MLOAD DUP1 SWAP2 SUB SWAP1 REVERT JUMPDEST DUP1 PUSH1 0x5 ADD SLOAD DUP2 PUSH1 0x4 ADD SLOAD GT ISZERO PUSH2 0x3C7 JUMPI PUSH1 0x1 DUP2 PUSH1 0x3 ADD PUSH1 0x0 PUSH2 0x100 EXP DUP2 SLOAD DUP2 PUSH1 0xFF MUL NOT AND SWAP1 DUP4 ISZERO ISZERO MUL OR SWAP1 SSTORE POP JUMPDEST POP POP JUMP JUMPDEST PUSH1 0x1 PUSH1 0x0 CALLER PUSH20 0xFFFFFFFFFFFFFFFFFFFFFFFFFFFFFFFFFFFFFFFF AND PUSH20 0xFFFFFFFFFFFFFFFFFFFFFFFFFFFFFFFFFFFFFFFF AND DUP2 MSTORE PUSH1 0x20 ADD SWAP1 DUP2 MSTORE PUSH1 0x20 ADD PUSH1 0x0 KECCAK256 PUSH1 0x0 ADD PUSH1 0x0 SWAP1 SLOAD SWAP1 PUSH2 0x100 EXP SWAP1 DIV PUSH1 0xFF AND PUSH2 0x45A JUMPI PUSH1 0x40 MLOAD PUSH32 0x8C379A000000000000000000000000000000000000000000000000000000000 DUP2 MSTORE PUSH1 0x4 ADD PUSH2 0x451 SWAP1 PUSH2 0x15A8 JUMP JUMPDEST PUSH1 0x40 MLOAD DUP1 SWAP2 SUB SWAP1 REVERT JUMPDEST PUSH1 0x0 PUSH1 0x2 DUP4 DUP2 SLOAD DUP2 LT PUSH2 0x470 JUMPI PUSH2 0x46F PUSH2 0x1409 JUMP JUMPDEST JUMPDEST SWAP1 PUSH1 0x0 MSTORE PUSH1 0x20 PUSH1 0x0 KECCAK256 SWAP1 PUSH1 0x8 MUL ADD SWAP1 POP DUP1 PUSH1 0x2 ADD SLOAD TIMESTAMP LT PUSH2 0x4C6 JUMPI PUSH1 0x40 MLOAD PUSH32 0x8C379A000000000000000000000000000000000000000000000000000000000 DUP2 MSTORE PUSH1 0x4 ADD PUSH2 0x4BD SWAP1 PUSH2 0x1614 JUMP JUMPDEST PUSH1 0x40 MLOAD DUP1 SWAP2 SUB SWAP1 REVERT JUMPDEST PUSH2 0x100 DUP2 PUSH1 0x6 ADD DUP1 SLOAD SWAP1 POP LT PUSH2 0x511 JUMPI PUSH1 0x40 MLOAD PUSH32 0x8C379A000000000000000000000000000000000000000000000000000000000 DUP2 MSTORE PUSH1 0x4 ADD PUSH2 0x508 SWAP1 PUSH2 0x1680 JUMP JUMPDEST PUSH1 0x40 MLOAD DUP1 SWAP2 SUB SWAP1 REVERT JUMPDEST PUSH1 0x0 DUP1 JUMPDEST DUP3 PUSH1 0x6 ADD DUP1 SLOAD SWAP1 POP DUP2 LT ISZERO PUSH2 0x5B4 JUMPI CALLER PUSH20 0xFFFFFFFFFFFFFFFFFFFFFFFFFFFFFFFFFFFFFFFF AND DUP4 PUSH1 0x6 ADD DUP3 DUP2 SLOAD DUP2 LT PUSH2 0x551 JUMPI PUSH2 0x550 PUSH2 0x1409 JUMP JUMPDEST JUMPDEST SWAP1 PUSH1 0x0 MSTORE PUSH1 0x20 PUSH1 0x0 KECCAK256 ADD PUSH1 0x0 SWAP1 SLOAD SWAP1 PUSH2 0x100 EXP SWAP1 DIV PUSH20 0xFFFFFFFFFFFFFFFFFFFFFFFFFFFFFFFFFFFFFFFF AND PUSH20 0xFFFFFFFFFFFFFFFFFFFFFFFFFFFFFFFFFFFFFFFF AND EQ ISZERO PUSH2 0x5A1 JUMPI PUSH1 0x1 SWAP2 POP PUSH2 0x5B4 JUMP JUMPDEST DUP1 DUP1 PUSH2 0x5AC SWAP1 PUSH2 0x16CF JUMP JUMPDEST SWAP2 POP POP PUSH2 0x515 JUMP JUMPDEST POP DUP1 ISZERO PUSH2 0x5F6 JUMPI PUSH1 0x40 MLOAD PUSH32 0x8C379A000000000000000000000000000000000000000000000000000000000 DUP2 MSTORE PUSH1 0x4 ADD PUSH2 0x5ED SWAP1 PUSH2 0x178A JUMP JUMPDEST PUSH1 0x40 MLOAD DUP1 SWAP2 SUB SWAP1 REVERT JUMPDEST DUP2 PUSH1 0x6 ADD CALLER SWAP1 DUP1 PUSH1 0x1 DUP2 SLOAD ADD DUP1 DUP3 SSTORE DUP1 SWAP2 POP POP PUSH1 0x1 SWAP1 SUB SWAP1 PUSH1 0x0 MSTORE PUSH1 0x20 PUSH1 0x0 KECCAK256 ADD PUSH1 0x0 SWAP1 SWAP2 SWAP1 SWAP2 SWAP1 SWAP2 PUSH2 0x100 EXP DUP2 SLOAD DUP2 PUSH20 0xFFFFFFFFFFFFFFFFFFFFFFFFFFFFFFFFFFFFFFFF MUL NOT AND SWAP1 DUP4 PUSH20 0xFFFFFFFFFFFFFFFFFFFFFFFFFFFFFFFFFFFFFFFF AND MUL OR SWAP1 SSTORE POP DUP2 PUSH1 0x7 ADD DUP4 SWAP1 DUP1 PUSH1 0x1 DUP2 SLOAD ADD DUP1 DUP3 SSTORE DUP1 SWAP2 POP POP PUSH1 0x1 SWAP1 SUB SWAP1 PUSH1 0x0 MSTORE PUSH1 0x20 PUSH1 0x0 KECCAK256 SWAP1 PUSH1 0x20 SWAP2 DUP3 DUP3 DIV ADD SWAP2 SWAP1 MOD SWAP1 SWAP2 SWAP1 SWAP2 SWAP1 SWAP2 PUSH2 0x100 EXP DUP2 SLOAD DUP2 PUSH1 0xFF MUL NOT AND SWAP1 DUP4 ISZERO ISZERO MUL OR SWAP1 SSTORE POP DUP3 ISZERO PUSH2 0x6C8 JUMPI PUSH1 0x1 DUP3 PUSH1 0x4 ADD PUSH1 0x0 DUP3 DUP3 SLOAD PUSH2 0x6BC SWAP2 SWAP1 PUSH2 0x17AA JUMP JUMPDEST SWAP3 POP POP DUP2 SWAP1 SSTORE POP PUSH2 0x6E5 JUMP JUMPDEST PUSH1 0x1 DUP3 PUSH1 0x5 ADD PUSH1 0x0 DUP3 DUP3 SLOAD PUSH2 0x6DD SWAP2 SWAP1 PUSH2 0x17AA JUMP JUMPDEST SWAP3 POP POP DUP2 SWAP1 SSTORE POP JUMPDEST CALLER PUSH20 0xFFFFFFFFFFFFFFFFFFFFFFFFFFFFFFFFFFFFFFFF AND DUP5 PUSH32 0x82B8CB75FD367BE519FD5F57ABCB2DBB773381C00082E94059C4713C4DFDFC05 DUP6 DUP6 PUSH1 0x4 ADD SLOAD DUP7 PUSH1 0x5 ADD SLOAD PUSH1 0x40 MLOAD PUSH2 0x738 SWAP4 SWAP3 SWAP2 SWAP1 PUSH2 0x1800 JUMP JUMPDEST PUSH1 0x40 MLOAD DUP1 SWAP2 SUB SWAP1 LOG3 POP POP POP POP JUMP JUMPDEST PUSH1 0x1 PUSH1 0x0 CALLER PUSH20 0xFFFFFFFFFFFFFFFFFFFFFFFFFFFFFFFFFFFFFFFF AND PUSH20 0xFFFFFFFFFFFFFFFFFFFFFFFFFFFFFFFFFFFFFFFF AND DUP2 MSTORE PUSH1 0x20 ADD SWAP1 DUP2 MSTORE PUSH1 0x20 ADD PUSH1 0x0 KECCAK256 PUSH1 0x0 ADD PUSH1 0x0 SWAP1 SLOAD SWAP1 PUSH2 0x100 EXP SWAP1 DIV PUSH1 0xFF AND PUSH2 0x7D5 JUMPI PUSH1 0x40 MLOAD PUSH32 0x8C379A000000000000000000000000000000000000000000000000000000000 DUP2 MSTORE PUSH1 0x4 ADD PUSH2 0x7CC SWAP1 PUSH2 0x15A8 JUMP JUMPDEST PUSH1 0x40 MLOAD DUP1 SWAP2 SUB SWAP1 REVERT JUMPDEST TIMESTAMP DUP2 GT PUSH2 0x817 JUMPI PUSH1 0x40 MLOAD PUSH32 0x8C379A000000000000000000000000000000000000000000000000000000000 DUP2 MSTORE PUSH1 0x4 ADD PUSH2 0x80E SWAP1 PUSH2 0x18A9 JUMP JUMPDEST PUSH1 0x40 MLOAD DUP1 SWAP2 SUB SWAP1 REVERT JUMPDEST PUSH1 0x0 PUSH1 0x2 DUP1 SLOAD SWAP1 POP SWAP1 POP PUSH1 0x2 PUSH1 0x40 MLOAD DUP1 PUSH2 0x100 ADD PUSH1 0x40 MSTORE DUP1 CALLER PUSH20 0xFFFFFFFFFFFFFFFFFFFFFFFFFFFFFFFFFFFFFFFF AND DUP2 MSTORE PUSH1 0x20 ADD DUP6 DUP2 MSTORE PUSH1 0x20 ADD DUP5 DUP2 MSTORE PUSH1 0x20 ADD PUSH1 0x0 ISZERO ISZERO DUP2 MSTORE PUSH1 0x20 ADD PUSH1 0x0 DUP2 MSTORE PUSH1 0x20 ADD PUSH1 0x0 DUP2 MSTORE PUSH1 0x20 ADD PUSH1 0x0 PUSH8 0xFFFFFFFFFFFFFFFF DUP2 GT ISZERO PUSH2 0x889 JUMPI PUSH2 0x888 PUSH2 0x1206 JUMP JUMPDEST JUMPDEST PUSH1 0x40 MLOAD SWAP1 DUP1 DUP3 MSTORE DUP1 PUSH1 0x20 MUL PUSH1 0x20 ADD DUP3 ADD PUSH1 0x40 MSTORE DUP1 ISZERO PUSH2 0x8B7 JUMPI DUP2 PUSH1 0x20 ADD PUSH1 0x20 DUP3 MUL DUP1 CALLDATASIZE DUP4 CALLDATACOPY DUP1 DUP3 ADD SWAP2 POP POP SWAP1 POP JUMPDEST POP DUP2 MSTORE PUSH1 0x20 ADD PUSH1 0x0 PUSH8 0xFFFFFFFFFFFFFFFF DUP2 GT ISZERO PUSH2 0x8D8 JUMPI PUSH2 0x8D7 PUSH2 0x1206 JUMP JUMPDEST JUMPDEST PUSH1 0x40 MLOAD SWAP1 DUP1 DUP3 MSTORE DUP1 PUSH1 0x20 MUL PUSH1 0x20 ADD DUP3 ADD PUSH1 0x40 MSTORE DUP1 ISZERO PUSH2 0x906 JUMPI DUP2 PUSH1 0x20 ADD PUSH1 0x20 DUP3 MUL DUP1 CALLDATASIZE DUP4 CALLDATACOPY DUP1 DUP3 ADD SWAP2 POP POP SWAP1 POP JUMPDEST POP DUP2 MSTORE POP SWAP1 DUP1 PUSH1 0x1 DUP2 SLOAD ADD DUP1 DUP3 SSTORE DUP1 SWAP2 POP POP PUSH1 0x1 SWAP1 SUB SWAP1 PUSH1 0x0 MSTORE PUSH1 0x20 PUSH1 0x0 KECCAK256 SWAP1 PUSH1 0x8 MUL ADD PUSH1 0x0 SWAP1 SWAP2 SWAP1 SWAP2 SWAP1 SWAP2 POP PUSH1 0x0 DUP3 ADD MLOAD DUP2 PUSH1 0x0 ADD PUSH1 0x0 PUSH2 0x100 EXP DUP2 SLOAD DUP2 PUSH20 0xFFFFFFFFFFFFFFFFFFFFFFFFFFFFFFFFFFFFFFFF MUL NOT AND SWAP1 DUP4 PUSH20 0xFFFFFFFFFFFFFFFFFFFFFFFFFFFFFFFFFFFFFFFF AND MUL OR SWAP1 SSTORE POP PUSH1 0x20 DUP3 ADD MLOAD DUP2 PUSH1 0x1 ADD SWAP1 DUP1 MLOAD SWAP1 PUSH1 0x20 ADD SWAP1 PUSH2 0x996 SWAP3 SWAP2 SWAP1 PUSH2 0xD58 JUMP JUMPDEST POP PUSH1 0x40 DUP3 ADD MLOAD DUP2 PUSH1 0x2 ADD SSTORE PUSH1 0x60 DUP3 ADD MLOAD DUP2 PUSH1 0x3 ADD PUSH1 0x0 PUSH2 0x100 EXP DUP2 SLOAD DUP2 PUSH1 0xFF MUL NOT AND SWAP1 DUP4 ISZERO ISZERO MUL OR SWAP1 SSTORE POP PUSH1 0x80 DUP3 ADD MLOAD DUP2 PUSH1 0x4 ADD SSTORE PUSH1 0xA0 DUP3 ADD MLOAD DUP2 PUSH1 0x5 ADD SSTORE PUSH1 0xC0 DUP3 ADD MLOAD DUP2 PUSH1 0x6 ADD SWAP1 DUP1 MLOAD SWAP1 PUSH1 0x20 ADD SWAP1 PUSH2 0x9F1 SWAP3 SWAP2 SWAP1 PUSH2 0xDDE JUMP JUMPDEST POP PUSH1 0xE0 DUP3 ADD MLOAD DUP2 PUSH1 0x7 ADD SWAP1 DUP1 MLOAD SWAP1 PUSH1 0x20 ADD SWAP1 PUSH2 0xA0E SWAP3 SWAP2 SWAP1 PUSH2 0xE68 JUMP JUMPDEST POP POP POP CALLER PUSH20 0xFFFFFFFFFFFFFFFFFFFFFFFFFFFFFFFFFFFFFFFF AND DUP2 PUSH32 0x6838DB3C5996FEC3DE968E640E7DD8000ADD88D4B31235FA327D85CDB8FFCE5C DUP6 DUP6 PUSH1 0x40 MLOAD PUSH2 0xA5A SWAP3 SWAP2 SWAP1 PUSH2 0x18C9 JUMP JUMPDEST PUSH1 0x40 MLOAD DUP1 SWAP2 SUB SWAP1 LOG3 POP POP POP JUMP JUMPDEST PUSH2 0xA6F PUSH2 0xC0E JUMP JUMPDEST PUSH2 0xA79 PUSH1 0x0 PUSH2 0xC8C JUMP JUMPDEST JUMP JUMPDEST PUSH1 0x0 DUP1 PUSH1 0x0 SWAP1 SLOAD SWAP1 PUSH2 0x100 EXP SWAP1 DIV PUSH20 0xFFFFFFFFFFFFFFFFFFFFFFFFFFFFFFFFFFFFFFFF AND SWAP1 POP SWAP1 JUMP JUMPDEST PUSH2 0xAAC PUSH2 0xC0E JUMP JUMPDEST PUSH1 0x0 PUSH20 0xFFFFFFFFFFFFFFFFFFFFFFFFFFFFFFFFFFFFFFFF AND DUP2 PUSH20 0xFFFFFFFFFFFFFFFFFFFFFFFFFFFFFFFFFFFFFFFF AND EQ ISZERO PUSH2 0xB1C JUMPI PUSH1 0x40 MLOAD PUSH32 0x8C379A000000000000000000000000000000000000000000000000000000000 DUP2 MSTORE PUSH1 0x4 ADD PUSH2 0xB13 SWAP1 PUSH2 0x196B JUMP JUMPDEST PUSH1 0x40 MLOAD DUP1 SWAP2 SUB SWAP1 REVERT JUMPDEST PUSH2 0xB25 DUP2 PUSH2 0xC8C JUMP JUMPDEST POP JUMP JUMPDEST PUSH1 0x1 DUP1 PUSH1 0x0 CALLER PUSH20 0xFFFFFFFFFFFFFFFFFFFFFFFFFFFFFFFFFFFFFFFF AND PUSH20 0xFFFFFFFFFFFFFFFFFFFFFFFFFFFFFFFFFFFFFFFF AND DUP2 MSTORE PUSH1 0x20 ADD SWAP1 DUP2 MSTORE PUSH1 0x20 ADD PUSH1 0x0 KECCAK256 PUSH1 0x0 ADD PUSH1 0x0 PUSH2 0x100 EXP DUP2 SLOAD DUP2 PUSH1 0xFF MUL NOT AND SWAP1 DUP4 ISZERO ISZERO MUL OR SWAP1 SSTORE POP TIMESTAMP PUSH1 0x1 PUSH1 0x0 CALLER PUSH20 0xFFFFFFFFFFFFFFFFFFFFFFFFFFFFFFFFFFFFFFFF AND PUSH20 0xFFFFFFFFFFFFFFFFFFFFFFFFFFFFFFFFFFFFFFFF AND DUP2 MSTORE PUSH1 0x20 ADD SWAP1 DUP2 MSTORE PUSH1 0x20 ADD PUSH1 0x0 KECCAK256 PUSH1 0x1 ADD DUP2 SWAP1 SSTORE POP CALLER PUSH20 0xFFFFFFFFFFFFFFFFFFFFFFFFFFFFFFFFFFFFFFFF AND PUSH32 0xB4DCB6DD550F27B5917EBF674899EA7046FF91790C6F9F01431617AD39819DB2 PUSH1 0x40 MLOAD PUSH1 0x40 MLOAD DUP1 SWAP2 SUB SWAP1 LOG2 JUMP JUMPDEST PUSH2 0xC16 PUSH2 0xD50 JUMP JUMPDEST PUSH20 0xFFFFFFFFFFFFFFFFFFFFFFFFFFFFFFFFFFFFFFFF AND PUSH2 0xC34 PUSH2 0xA7B JUMP JUMPDEST PUSH20 0xFFFFFFFFFFFFFFFFFFFFFFFFFFFFFFFFFFFFFFFF AND EQ PUSH2 0xC8A JUMPI PUSH1 0x40 MLOAD PUSH32 0x8C379A000000000000000000000000000000000000000000000000000000000 DUP2 MSTORE PUSH1 0x4 ADD PUSH2 0xC81 SWAP1 PUSH2 0x19D7 JUMP JUMPDEST PUSH1 0x40 MLOAD DUP1 SWAP2 SUB SWAP1 REVERT JUMPDEST JUMP JUMPDEST PUSH1 0x0 DUP1 PUSH1 0x0 SWAP1 SLOAD SWAP1 PUSH2 0x100 EXP SWAP1 DIV PUSH20 0xFFFFFFFFFFFFFFFFFFFFFFFFFFFFFFFFFFFFFFFF AND SWAP1 POP DUP2 PUSH1 0x0 DUP1 PUSH2 0x100 EXP DUP2 SLOAD DUP2 PUSH20 0xFFFFFFFFFFFFFFFFFFFFFFFFFFFFFFFFFFFFFFFF MUL NOT AND SWAP1 DUP4 PUSH20 0xFFFFFFFFFFFFFFFFFFFFFFFFFFFFFFFFFFFFFFFF AND MUL OR SWAP1 SSTORE POP DUP2 PUSH20 0xFFFFFFFFFFFFFFFFFFFFFFFFFFFFFFFFFFFFFFFF AND DUP2 PUSH20 0xFFFFFFFFFFFFFFFFFFFFFFFFFFFFFFFFFFFFFFFF AND PUSH32 0x8BE0079C531659141344CD1FD0A4F28419497F9722A3DAAFE3B4186F6B6457E0 PUSH1 0x40 MLOAD PUSH1 0x40 MLOAD DUP1 SWAP2 SUB SWAP1 LOG3 POP POP JUMP JUMPDEST PUSH1 0x0 CALLER SWAP1 POP SWAP1 JUMP JUMPDEST DUP3 DUP1 SLOAD PUSH2 0xD64 SWAP1 PUSH2 0x13D7 JUMP JUMPDEST SWAP1 PUSH1 0x0 MSTORE PUSH1 0x20 PUSH1 0x0 KECCAK256 SWAP1 PUSH1 0x1F ADD PUSH1 0x20 SWAP1 DIV DUP2 ADD SWAP3 DUP3 PUSH2 0xD86 JUMPI PUSH1 0x0 DUP6 SSTORE PUSH2 0xDCD JUMP JUMPDEST DUP3 PUSH1 0x1F LT PUSH2 0xD9F JUMPI DUP1 MLOAD PUSH1 0xFF NOT AND DUP4 DUP1 ADD OR DUP6 SSTORE PUSH2 0xDCD JUMP JUMPDEST DUP3 DUP1 ADD PUSH1 0x1 ADD DUP6 SSTORE DUP3 ISZERO PUSH2 0xDCD JUMPI SWAP2 DUP3 ADD JUMPDEST DUP3 DUP2 GT ISZERO PUSH2 0xDCC JUMPI DUP3 MLOAD DUP3 SSTORE SWAP2 PUSH1 0x20 ADD SWAP2 SWAP1 PUSH1 0x1 ADD SWAP1 PUSH2 0xDB1 JUMP JUMPDEST JUMPDEST POP SWAP1 POP PUSH2 0xDDA SWAP2 SWAP1 PUSH2 0xF0E JUMP JUMPDEST POP SWAP1 JUMP JUMPDEST DUP3 DUP1 SLOAD DUP3 DUP3 SSTORE SWAP1 PUSH1 0x0 MSTORE PUSH1 0x20 PUSH1 0x0 KECCAK256 SWAP1 DUP2 ADD SWAP3 DUP3 ISZERO PUSH2 0xE57 JUMPI SWAP2 PUSH1 0x20 MUL DUP3 ADD JUMPDEST DUP3 DUP2 GT ISZERO PUSH2 0xE56 JUMPI DUP3 MLOAD DUP3 PUSH1 0x0 PUSH2 0x100 EXP DUP2 SLOAD DUP2 PUSH20 0xFFFFFFFFFFFFFFFFFFFFFFFFFFFFFFFFFFFFFFFF MUL NOT AND SWAP1 DUP4 PUSH20 0xFFFFFFFFFFFFFFFFFFFFFFFFFFFFFFFFFFFFFFFF AND MUL OR SWAP1 SSTORE POP SWAP2 PUSH1 0x20 ADD SWAP2 SWAP1 PUSH1 0x1 ADD SWAP1 PUSH2 0xDFE JUMP JUMPDEST JUMPDEST POP SWAP1 POP PUSH2 0xE64 SWAP2 SWAP1 PUSH2 0xF0E JUMP JUMPDEST POP SWAP1 JUMP JUMPDEST DUP3 DUP1 SLOAD DUP3 DUP3 SSTORE SWAP1 PUSH1 0x0 MSTORE PUSH1 0x20 PUSH1 0x0 KECCAK256 SWAP1 PUSH1 0x1F ADD PUSH1 0x20 SWAP1 DIV DUP2 ADD SWAP3 DUP3 ISZERO PUSH2 0xEFD JUMPI SWAP2 PUSH1 0x20 MUL DUP3 ADD PUSH1 0x0 JUMPDEST DUP4 DUP3 GT ISZERO PUSH2 0xECE JUMPI DUP4 MLOAD DUP4 DUP3 PUSH2 0x100 EXP DUP2 SLOAD DUP2 PUSH1 0xFF MUL NOT AND SWAP1 DUP4 ISZERO ISZERO MUL OR SWAP1 SSTORE POP SWAP3 PUSH1 0x20 ADD SWAP3 PUSH1 0x1 ADD PUSH1 0x20 DUP2 PUSH1 0x0 ADD DIV SWAP3 DUP4 ADD SWAP3 PUSH1 0x1 SUB MUL PUSH2 0xE91 JUMP JUMPDEST DUP1 ISZERO PUSH2 0xEFB JUMPI DUP3 DUP2 PUSH2 0x100 EXP DUP2 SLOAD SWAP1 PUSH1 0xFF MUL NOT AND SWAP1 SSTORE PUSH1 0x1 ADD PUSH1 0x20 DUP2 PUSH1 0x0 ADD DIV SWAP3 DUP4 ADD SWAP3 PUSH1 0x1 SUB MUL PUSH2 0xECE JUMP JUMPDEST POP JUMPDEST POP SWAP1 POP PUSH2 0xF0A SWAP2 SWAP1 PUSH2 0xF0E JUMP JUMPDEST POP SWAP1 JUMP JUMPDEST JUMPDEST DUP1 DUP3 GT ISZERO PUSH2 0xF27 JUMPI PUSH1 0x0 DUP2 PUSH1 0x0 SWAP1 SSTORE POP PUSH1 0x1 ADD PUSH2 0xF0F JUMP JUMPDEST POP SWAP1 JUMP JUMPDEST PUSH1 0x0 PUSH1 0x40 MLOAD SWAP1 POP SWAP1 JUMP JUMPDEST PUSH1 0x0 DUP1 REVERT JUMPDEST PUSH1 0x0 DUP1 REVERT JUMPDEST PUSH1 0x0 DUP2 SWAP1 POP SWAP2 SWAP1 POP JUMP JUMPDEST PUSH2 0xF52 DUP2 PUSH2 0xF3F JUMP JUMPDEST DUP2 EQ PUSH2 0xF5D JUMPI PUSH1 0x0 DUP1 REVERT JUMPDEST POP JUMP JUMPDEST PUSH1 0x0 DUP2 CALLDATALOAD SWAP1 POP PUSH2 0xF6F DUP2 PUSH2 0xF49 JUMP JUMPDEST SWAP3 SWAP2 POP POP JUMP JUMPDEST PUSH1 0x0 PUSH1 0x20 DUP3 DUP5 SUB SLT ISZERO PUSH2 0xF8B JUMPI PUSH2 0xF8A PUSH2 0xF35 JUMP JUMPDEST JUMPDEST PUSH1 0x0 PUSH2 0xF99 DUP5 DUP3 DUP6 ADD PUSH2 0xF60 JUMP JUMPDEST SWAP2 POP POP SWAP3 SWAP2 POP POP JUMP JUMPDEST PUSH1 0x0 PUSH20 0xFFFFFFFFFFFFFFFFFFFFFFFFFFFFFFFFFFFFFFFF DUP3 AND SWAP1 POP SWAP2 SWAP1 POP JUMP JUMPDEST PUSH1 0x0 PUSH2 0xFCD DUP3 PUSH2 0xFA2 JUMP JUMPDEST SWAP1 POP SWAP2 SWAP1 POP JUMP JUMPDEST PUSH2 0xFDD DUP2 PUSH2 0xFC2 JUMP JUMPDEST DUP3 MSTORE POP POP JUMP JUMPDEST PUSH1 0x0 DUP2 MLOAD SWAP1 POP SWAP2 SWAP1 POP JUMP JUMPDEST PUSH1 0x0 DUP3 DUP3 MSTORE PUSH1 0x20 DUP3 ADD SWAP1 POP SWAP3 SWAP2 POP POP JUMP JUMPDEST PUSH1 0x0 JUMPDEST DUP4 DUP2 LT ISZERO PUSH2 0x101D JUMPI DUP1 DUP3 ADD MLOAD DUP2 DUP5 ADD MSTORE PUSH1 0x20 DUP2 ADD SWAP1 POP PUSH2 0x1002 JUMP JUMPDEST DUP4 DUP2 GT ISZERO PUSH2 0x102C JUMPI PUSH1 0x0 DUP5 DUP5 ADD MSTORE JUMPDEST POP POP POP POP JUMP JUMPDEST PUSH1 0x0 PUSH1 0x1F NOT PUSH1 0x1F DUP4 ADD AND SWAP1 POP SWAP2 SWAP1 POP JUMP JUMPDEST PUSH1 0x0 PUSH2 0x104E DUP3 PUSH2 0xFE3 JUMP JUMPDEST PUSH2 0x1058 DUP2 DUP6 PUSH2 0xFEE JUMP JUMPDEST SWAP4 POP PUSH2 0x1068 DUP2 DUP6 PUSH1 0x20 DUP7 ADD PUSH2 0xFFF JUMP JUMPDEST PUSH2 0x1071 DUP2 PUSH2 0x1032 JUMP JUMPDEST DUP5 ADD SWAP2 POP POP SWAP3 SWAP2 POP POP JUMP JUMPDEST PUSH2 0x1085 DUP2 PUSH2 0xF3F JUMP JUMPDEST DUP3 MSTORE POP POP JUMP JUMPDEST PUSH1 0x0 DUP2 ISZERO ISZERO SWAP1 POP SWAP2 SWAP1 POP JUMP JUMPDEST PUSH2 0x10A0 DUP2 PUSH2 0x108B JUMP JUMPDEST DUP3 MSTORE POP POP JUMP JUMPDEST PUSH1 0x0 PUSH1 0xC0 DUP3 ADD SWAP1 POP PUSH2 0x10BB PUSH1 0x0 DUP4 ADD DUP10 PUSH2 0xFD4 JUMP JUMPDEST DUP2 DUP2 SUB PUSH1 0x20 DUP4 ADD MSTORE PUSH2 0x10CD DUP2 DUP9 PUSH2 0x1043 JUMP JUMPDEST SWAP1 POP PUSH2 0x10DC PUSH1 0x40 DUP4 ADD DUP8 PUSH2 0x107C JUMP JUMPDEST PUSH2 0x10E9 PUSH1 0x60 DUP4 ADD DUP7 PUSH2 0x1097 JUMP JUMPDEST PUSH2 0x10F6 PUSH1 0x80 DUP4 ADD DUP6 PUSH2 0x107C JUMP JUMPDEST PUSH2 0x1103 PUSH1 0xA0 DUP4 ADD DUP5 PUSH2 0x107C JUMP JUMPDEST SWAP8 SWAP7 POP POP POP POP POP POP POP JUMP JUMPDEST PUSH2 0x1117 DUP2 PUSH2 0xFC2 JUMP JUMPDEST DUP2 EQ PUSH2 0x1122 JUMPI PUSH1 0x0 DUP1 REVERT JUMPDEST POP JUMP JUMPDEST PUSH1 0x0 DUP2 CALLDATALOAD SWAP1 POP PUSH2 0x1134 DUP2 PUSH2 0x110E JUMP JUMPDEST SWAP3 SWAP2 POP POP JUMP JUMPDEST PUSH1 0x0 PUSH1 0x20 DUP3 DUP5 SUB SLT ISZERO PUSH2 0x1150 JUMPI PUSH2 0x114F PUSH2 0xF35 JUMP JUMPDEST JUMPDEST PUSH1 0x0 PUSH2 0x115E DUP5 DUP3 DUP6 ADD PUSH2 0x1125 JUMP JUMPDEST SWAP2 POP POP SWAP3 SWAP2 POP POP JUMP JUMPDEST PUSH1 0x0 PUSH1 0x40 DUP3 ADD SWAP1 POP PUSH2 0x117C PUSH1 0x0 DUP4 ADD DUP6 PUSH2 0x1097 JUMP JUMPDEST PUSH2 0x1189 PUSH1 0x20 DUP4 ADD DUP5 PUSH2 0x107C JUMP JUMPDEST SWAP4 SWAP3 POP POP POP JUMP JUMPDEST PUSH2 0x1199 DUP2 PUSH2 0x108B JUMP JUMPDEST DUP2 EQ PUSH2 0x11A4 JUMPI PUSH1 0x0 DUP1 REVERT JUMPDEST POP JUMP JUMPDEST PUSH1 0x0 DUP2 CALLDATALOAD SWAP1 POP PUSH2 0x11B6 DUP2 PUSH2 0x1190 JUMP JUMPDEST SWAP3 SWAP2 POP POP JUMP JUMPDEST PUSH1 0x0 DUP1 PUSH1 0x40 DUP4 DUP6 SUB SLT ISZERO PUSH2 0x11D3 JUMPI PUSH2 0x11D2 PUSH2 0xF35 JUMP JUMPDEST JUMPDEST PUSH1 0x0 PUSH2 0x11E1 DUP6 DUP3 DUP7 ADD PUSH2 0xF60 JUMP JUMPDEST SWAP3 POP POP PUSH1 0x20 PUSH2 0x11F2 DUP6 DUP3 DUP7 ADD PUSH2 0x11A7 JUMP JUMPDEST SWAP2 POP POP SWAP3 POP SWAP3 SWAP1 POP JUMP JUMPDEST PUSH1 0x0 DUP1 REVERT JUMPDEST PUSH1 0x0 DUP1 REVERT JUMPDEST PUSH32 0x4E487B7100000000000000000000000000000000000000000000000000000000 PUSH1 0x0 MSTORE PUSH1 0x41 PUSH1 0x4 MSTORE PUSH1 0x24 PUSH1 0x0 REVERT JUMPDEST PUSH2 0x123E DUP3 PUSH2 0x1032 JUMP JUMPDEST DUP2 ADD DUP2 DUP2 LT PUSH8 0xFFFFFFFFFFFFFFFF DUP3 GT OR ISZERO PUSH2 0x125D JUMPI PUSH2 0x125C PUSH2 0x1206 JUMP JUMPDEST JUMPDEST DUP1 PUSH1 0x40 MSTORE POP POP POP JUMP JUMPDEST PUSH1 0x0 PUSH2 0x1270 PUSH2 0xF2B JUMP JUMPDEST SWAP1 POP PUSH2 0x127C DUP3 DUP3 PUSH2 0x1235 JUMP JUMPDEST SWAP2 SWAP1 POP JUMP JUMPDEST PUSH1 0x0 PUSH8 0xFFFFFFFFFFFFFFFF DUP3 GT ISZERO PUSH2 0x129C JUMPI PUSH2 0x129B PUSH2 0x1206 JUMP JUMPDEST JUMPDEST PUSH2 0x12A5 DUP3 PUSH2 0x1032 JUMP JUMPDEST SWAP1 POP PUSH1 0x20 DUP2 ADD SWAP1 POP SWAP2 SWAP1 POP JUMP JUMPDEST DUP3 DUP2 DUP4 CALLDATACOPY PUSH1 0x0 DUP4 DUP4 ADD MSTORE POP POP POP JUMP JUMPDEST PUSH1 0x0 PUSH2 0x12D4 PUSH2 0x12CF DUP5 PUSH2 0x1281 JUMP JUMPDEST PUSH2 0x1266 JUMP JUMPDEST SWAP1 POP DUP3 DUP2 MSTORE PUSH1 0x20 DUP2 ADD DUP5 DUP5 DUP5 ADD GT ISZERO PUSH2 0x12F0 JUMPI PUSH2 0x12EF PUSH2 0x1201 JUMP JUMPDEST JUMPDEST PUSH2 0x12FB DUP5 DUP3 DUP6 PUSH2 0x12B2 JUMP JUMPDEST POP SWAP4 SWAP3 POP POP POP JUMP JUMPDEST PUSH1 0x0 DUP3 PUSH1 0x1F DUP4 ADD SLT PUSH2 0x1318 JUMPI PUSH2 0x1317 PUSH2 0x11FC JUMP JUMPDEST JUMPDEST DUP2 CALLDATALOAD PUSH2 0x1328 DUP5 DUP3 PUSH1 0x20 DUP7 ADD PUSH2 0x12C1 JUMP JUMPDEST SWAP2 POP POP SWAP3 SWAP2 POP POP JUMP JUMPDEST PUSH1 0x0 DUP1 PUSH1 0x40 DUP4 DUP6 SUB SLT ISZERO PUSH2 0x1348 JUMPI PUSH2 0x1347 PUSH2 0xF35 JUMP JUMPDEST JUMPDEST PUSH1 0x0 DUP4 ADD CALLDATALOAD PUSH8 0xFFFFFFFFFFFFFFFF DUP2 GT ISZERO PUSH2 0x1366 JUMPI PUSH2 0x1365 PUSH2 0xF3A JUMP JUMPDEST JUMPDEST PUSH2 0x1372 DUP6 DUP3 DUP7 ADD PUSH2 0x1303 JUMP JUMPDEST SWAP3 POP POP PUSH1 0x20 PUSH2 0x1383 DUP6 DUP3 DUP7 ADD PUSH2 0xF60 JUMP JUMPDEST SWAP2 POP POP SWAP3 POP SWAP3 SWAP1 POP JUMP JUMPDEST PUSH1 0x0 PUSH1 0x20 DUP3 ADD SWAP1 POP PUSH2 0x13A2 PUSH1 0x0 DUP4 ADD DUP5 PUSH2 0xFD4 JUMP JUMPDEST SWAP3 SWAP2 POP POP JUMP JUMPDEST PUSH32 0x4E487B7100000000000000000000000000000000000000000000000000000000 PUSH1 0x0 MSTORE PUSH1 0x22 PUSH1 0x4 MSTORE PUSH1 0x24 PUSH1 0x0 REVERT JUMPDEST PUSH1 0x0 PUSH1 0x2 DUP3 DIV SWAP1 POP PUSH1 0x1 DUP3 AND DUP1 PUSH2 0x13EF JUMPI PUSH1 0x7F DUP3 AND SWAP2 POP JUMPDEST PUSH1 0x20 DUP3 LT DUP2 EQ ISZERO PUSH2 0x1403 JUMPI PUSH2 0x1402 PUSH2 0x13A8 JUMP JUMPDEST JUMPDEST POP SWAP2 SWAP1 POP JUMP JUMPDEST PUSH32 0x4E487B7100000000000000000000000000000000000000000000000000000000 PUSH1 0x0 MSTORE PUSH1 0x32 PUSH1 0x4 MSTORE PUSH1 0x24 PUSH1 0x0 REVERT JUMPDEST PUSH32 0x50726F706F73616C2068617320616C7265616479206265656E20657865637574 PUSH1 0x0 DUP3 ADD MSTORE PUSH32 0x6564000000000000000000000000000000000000000000000000000000000000 PUSH1 0x20 DUP3 ADD MSTORE POP JUMP JUMPDEST PUSH1 0x0 PUSH2 0x1494 PUSH1 0x22 DUP4 PUSH2 0xFEE JUMP JUMPDEST SWAP2 POP PUSH2 0x149F DUP3 PUSH2 0x1438 JUMP JUMPDEST PUSH1 0x40 DUP3 ADD SWAP1 POP SWAP2 SWAP1 POP JUMP JUMPDEST PUSH1 0x0 PUSH1 0x20 DUP3 ADD SWAP1 POP DUP2 DUP2 SUB PUSH1 0x0 DUP4 ADD MSTORE PUSH2 0x14C3 DUP2 PUSH2 0x1487 JUMP JUMPDEST SWAP1 POP SWAP2 SWAP1 POP JUMP JUMPDEST PUSH32 0x566F74696E6720686173206E6F7420656E646564000000000000000000000000 PUSH1 0x0 DUP3 ADD MSTORE POP JUMP JUMPDEST PUSH1 0x0 PUSH2 0x1500 PUSH1 0x14 DUP4 PUSH2 0xFEE JUMP JUMPDEST SWAP2 POP PUSH2 0x150B DUP3 PUSH2 0x14CA JUMP JUMPDEST PUSH1 0x20 DUP3 ADD SWAP1 POP SWAP2 SWAP1 POP JUMP JUMPDEST PUSH1 0x0 PUSH1 0x20 DUP3 ADD SWAP1 POP DUP2 DUP2 SUB PUSH1 0x0 DUP4 ADD MSTORE PUSH2 0x152F DUP2 PUSH2 0x14F3 JUMP JUMPDEST SWAP1 POP SWAP2 SWAP1 POP JUMP JUMPDEST PUSH32 0x4F6E6C79206D656D626572732063616E2063616C6C20746869732066756E6374 PUSH1 0x0 DUP3 ADD MSTORE PUSH32 0x696F6E0000000000000000000000000000000000000000000000000000000000 PUSH1 0x20 DUP3 ADD MSTORE POP JUMP JUMPDEST PUSH1 0x0 PUSH2 0x1592 PUSH1 0x23 DUP4 PUSH2 0xFEE JUMP JUMPDEST SWAP2 POP PUSH2 0x159D DUP3 PUSH2 0x1536 JUMP JUMPDEST PUSH1 0x40 DUP3 ADD SWAP1 POP SWAP2 SWAP1 POP JUMP JUMPDEST PUSH1 0x0 PUSH1 0x20 DUP3 ADD SWAP1 POP DUP2 DUP2 SUB PUSH1 0x0 DUP4 ADD MSTORE PUSH2 0x15C1 DUP2 PUSH2 0x1585 JUMP JUMPDEST SWAP1 POP SWAP2 SWAP1 POP JUMP JUMPDEST PUSH32 0x566F74696E672068617320656E64656400000000000000000000000000000000 PUSH1 0x0 DUP3 ADD MSTORE POP JUMP JUMPDEST PUSH1 0x0 PUSH2 0x15FE PUSH1 0x10 DUP4 PUSH2 0xFEE JUMP JUMPDEST SWAP2 POP PUSH2 0x1609 DUP3 PUSH2 0x15C8 JUMP JUMPDEST PUSH1 0x20 DUP3 ADD SWAP1 POP SWAP2 SWAP1 POP JUMP JUMPDEST PUSH1 0x0 PUSH1 0x20 DUP3 ADD SWAP1 POP DUP2 DUP2 SUB PUSH1 0x0 DUP4 ADD MSTORE PUSH2 0x162D DUP2 PUSH2 0x15F1 JUMP JUMPDEST SWAP1 POP SWAP2 SWAP1 POP JUMP JUMPDEST PUSH32 0x4D6178206E756D626572206F6620766F74657273207265616368656400000000 PUSH1 0x0 DUP3 ADD MSTORE POP JUMP JUMPDEST PUSH1 0x0 PUSH2 0x166A PUSH1 0x1C DUP4 PUSH2 0xFEE JUMP JUMPDEST SWAP2 POP PUSH2 0x1675 DUP3 PUSH2 0x1634 JUMP JUMPDEST PUSH1 0x20 DUP3 ADD SWAP1 POP SWAP2 SWAP1 POP JUMP JUMPDEST PUSH1 0x0 PUSH1 0x20 DUP3 ADD SWAP1 POP DUP2 DUP2 SUB PUSH1 0x0 DUP4 ADD MSTORE PUSH2 0x1699 DUP2 PUSH2 0x165D JUMP JUMPDEST SWAP1 POP SWAP2 SWAP1 POP JUMP JUMPDEST PUSH32 0x4E487B7100000000000000000000000000000000000000000000000000000000 PUSH1 0x0 MSTORE PUSH1 0x11 PUSH1 0x4 MSTORE PUSH1 0x24 PUSH1 0x0 REVERT JUMPDEST PUSH1 0x0 PUSH2 0x16DA DUP3 PUSH2 0xF3F JUMP JUMPDEST SWAP2 POP PUSH32 0xFFFFFFFFFFFFFFFFFFFFFFFFFFFFFFFFFFFFFFFFFFFFFFFFFFFFFFFFFFFFFFFF DUP3 EQ ISZERO PUSH2 0x170D JUMPI PUSH2 0x170C PUSH2 0x16A0 JUMP JUMPDEST JUMPDEST PUSH1 0x1 DUP3 ADD SWAP1 POP SWAP2 SWAP1 POP JUMP JUMPDEST PUSH32 0x596F75206861766520616C726561647920766F746564206F6E20746869732070 PUSH1 0x0 DUP3 ADD MSTORE PUSH32 0x726F706F73616C00000000000000000000000000000000000000000000000000 PUSH1 0x20 DUP3 ADD MSTORE POP JUMP JUMPDEST PUSH1 0x0 PUSH2 0x1774 PUSH1 0x27 DUP4 PUSH2 0xFEE JUMP JUMPDEST SWAP2 POP PUSH2 0x177F DUP3 PUSH2 0x1718 JUMP JUMPDEST PUSH1 0x40 DUP3 ADD SWAP1 POP SWAP2 SWAP1 POP JUMP JUMPDEST PUSH1 0x0 PUSH1 0x20 DUP3 ADD SWAP1 POP DUP2 DUP2 SUB PUSH1 0x0 DUP4 ADD MSTORE PUSH2 0x17A3 DUP2 PUSH2 0x1767 JUMP JUMPDEST SWAP1 POP SWAP2 SWAP1 POP JUMP JUMPDEST PUSH1 0x0 PUSH2 0x17B5 DUP3 PUSH2 0xF3F JUMP JUMPDEST SWAP2 POP PUSH2 0x17C0 DUP4 PUSH2 0xF3F JUMP JUMPDEST SWAP3 POP DUP3 PUSH32 0xFFFFFFFFFFFFFFFFFFFFFFFFFFFFFFFFFFFFFFFFFFFFFFFFFFFFFFFFFFFFFFFF SUB DUP3 GT ISZERO PUSH2 0x17F5 JUMPI PUSH2 0x17F4 PUSH2 0x16A0 JUMP JUMPDEST JUMPDEST DUP3 DUP3 ADD SWAP1 POP SWAP3 SWAP2 POP POP JUMP JUMPDEST PUSH1 0x0 PUSH1 0x60 DUP3 ADD SWAP1 POP PUSH2 0x1815 PUSH1 0x0 DUP4 ADD DUP7 PUSH2 0x1097 JUMP JUMPDEST PUSH2 0x1822 PUSH1 0x20 DUP4 ADD DUP6 PUSH2 0x107C JUMP JUMPDEST PUSH2 0x182F PUSH1 0x40 DUP4 ADD DUP5 PUSH2 0x107C JUMP JUMPDEST SWAP5 SWAP4 POP POP POP POP JUMP JUMPDEST PUSH32 0x566F74696E6720656E642074696D65206D75737420626520696E207468652066 PUSH1 0x0 DUP3 ADD MSTORE PUSH32 0x7574757265000000000000000000000000000000000000000000000000000000 PUSH1 0x20 DUP3 ADD MSTORE POP JUMP JUMPDEST PUSH1 0x0 PUSH2 0x1893 PUSH1 0x25 DUP4 PUSH2 0xFEE JUMP JUMPDEST SWAP2 POP PUSH2 0x189E DUP3 PUSH2 0x1837 JUMP JUMPDEST PUSH1 0x40 DUP3 ADD SWAP1 POP SWAP2 SWAP1 POP JUMP JUMPDEST PUSH1 0x0 PUSH1 0x20 DUP3 ADD SWAP1 POP DUP2 DUP2 SUB PUSH1 0x0 DUP4 ADD MSTORE PUSH2 0x18C2 DUP2 PUSH2 0x1886 JUMP JUMPDEST SWAP1 POP SWAP2 SWAP1 POP JUMP JUMPDEST PUSH1 0x0 PUSH1 0x40 DUP3 ADD SWAP1 POP DUP2 DUP2 SUB PUSH1 0x0 DUP4 ADD MSTORE PUSH2 0x18E3 DUP2 DUP6 PUSH2 0x1043 JUMP JUMPDEST SWAP1 POP PUSH2 0x18F2 PUSH1 0x20 DUP4 ADD DUP5 PUSH2 0x107C JUMP JUMPDEST SWAP4 SWAP3 POP POP POP JUMP JUMPDEST PUSH32 0x4F776E61626C653A206E6577206F776E657220697320746865207A65726F2061 PUSH1 0x0 DUP3 ADD MSTORE PUSH32 0x6464726573730000000000000000000000000000000000000000000000000000 PUSH1 0x20 DUP3 ADD MSTORE POP JUMP JUMPDEST PUSH1 0x0 PUSH2 0x1955 PUSH1 0x26 DUP4 PUSH2 0xFEE JUMP JUMPDEST SWAP2 POP PUSH2 0x1960 DUP3 PUSH2 0x18F9 JUMP JUMPDEST PUSH1 0x40 DUP3 ADD SWAP1 POP SWAP2 SWAP1 POP JUMP JUMPDEST PUSH1 0x0 PUSH1 0x20 DUP3 ADD SWAP1 POP DUP2 DUP2 SUB PUSH1 0x0 DUP4 ADD MSTORE PUSH2 0x1984 DUP2 PUSH2 0x1948 JUMP JUMPDEST SWAP1 POP SWAP2 SWAP1 POP JUMP JUMPDEST PUSH32 0x4F776E61626C653A2063616C6C6572206973206E6F7420746865206F776E6572 PUSH1 0x0 DUP3 ADD MSTORE POP JUMP JUMPDEST PUSH1 0x0 PUSH2 0x19C1 PUSH1 0x20 DUP4 PUSH2 0xFEE JUMP JUMPDEST SWAP2 POP PUSH2 0x19CC DUP3 PUSH2 0x198B JUMP JUMPDEST PUSH1 0x20 DUP3 ADD SWAP1 POP SWAP2 SWAP1 POP JUMP JUMPDEST PUSH1 0x0 PUSH1 0x20 DUP3 ADD SWAP1 POP DUP2 DUP2 SUB PUSH1 0x0 DUP4 ADD MSTORE PUSH2 0x19F0 DUP2 PUSH2 0x19B4 JUMP JUMPDEST SWAP1 POP SWAP2 SWAP1 POP JUMP INVALID LOG2 PUSH5 0x6970667358 0x22 SLT KECCAK256 0xCD SWAP16 0xF 0xD1 0xC MSTORE8 0xAF 0xBC PUSH22 0xB7D533A91A7B4AF88E86EBEC9A74BCD5211FE10FA6AB SWAP12 PUSH5 0x736F6C6343 STOP ADDMOD ADDMOD STOP CALLER "},"gasEstimates":{"creation":{"codeDepositCost":"1340200","executionCost":"infinite","totalCost":"infinite"},"external":{"createProposal(string,uint256)":"infinite","executeProposal(uint256)":"37723","joinDAO()":"47962","members(address)":"5105","owner()":"2566","proposals(uint256)":"infinite","renounceOwnership()":"30420","transferOwnership(address)":"30813","voteOnProposal(uint256,bool)":"infinite"}},"methodIdentifiers":{"createProposal(string,uint256)":"35facf78","executeProposal(uint256)":"0d61b519","joinDAO()":"f63d13d7","members(address)":"08ae4b0c","owner()":"8da5cb5b","proposals(uint256)":"013cf08b","renounceOwnership()":"715018a6","transferOwnership(address)":"f2fde38b","voteOnProposal(uint256,bool)":"1614665c"}},"storageLayout":{"storage":[{"astId":7,"contract":"contracts/PolygonDAO.sol:PolygonDAO","label":"_owner","offset":0,"slot":"0","type":"t_address"},{"astId":168,"contract":"contracts/PolygonDAO.sol:PolygonDAO","label":"members","offset":0,"slot":"1","type":"t_mapping(t_address,t_struct(Member)144_storage)"},{"astId":172,"contract":"contracts/PolygonDAO.sol:PolygonDAO","label":"proposals","offset":0,"slot":"2","type":"t_array(t_struct(Proposal)163_storage)dyn_storage"}],"types":{"t_address":{"encoding":"inplace","label":"address","numberOfBytes":"20"},"t_array(t_address)dyn_storage":{"base":"t_address","encoding":"dynamic_array","label":"address[]","numberOfBytes":"32"},"t_array(t_bool)dyn_storage":{"base":"t_bool","encoding":"dynamic_array","label":"bool[]","numberOfBytes":"32"},"t_array(t_struct(Proposal)163_storage)dyn_storage":{"base":"t_struct(Proposal)163_storage","encoding":"dynamic_array","label":"struct PolygonDAO.Proposal[]","numberOfBytes":"32"},"t_bool":{"encoding":"inplace","label":"bool","numberOfBytes":"1"},"t_mapping(t_address,t_struct(Member)144_storage)":{"encoding":"mapping","key":"t_address","label":"mapping(address => struct PolygonDAO.Member)","numberOfBytes":"32","value":"t_struct(Member)144_storage"},"t_string_storage":{"encoding":"bytes","label":"string","numberOfBytes":"32"},"t_struct(Member)144_storage":{"encoding":"inplace","label":"struct PolygonDAO.Member","members":[{"astId":141,"contract":"contracts/PolygonDAO.sol:PolygonDAO","label":"isMember","offset":0,"slot":"0","type":"t_bool"},{"astId":143,"contract":"contracts/PolygonDAO.sol:PolygonDAO","label":"joinDate","offset":0,"slot":"1","type":"t_uint256"}],"numberOfBytes":"64"},"t_struct(Proposal)163_storage":{"encoding":"inplace","label":"struct PolygonDAO.Proposal","members":[{"astId":146,"contract":"contracts/PolygonDAO.sol:PolygonDAO","label":"proposer","offset":0,"slot":"0","type":"t_address"},{"astId":148,"contract":"contracts/PolygonDAO.sol:PolygonDAO","label":"proposalText","offset":0,"slot":"1","type":"t_string_storage"},{"astId":150,"contract":"contracts/PolygonDAO.sol:PolygonDAO","label":"votingEndTime","offset":0,"slot":"2","type":"t_uint256"},{"astId":152,"contract":"contracts/PolygonDAO.sol:PolygonDAO","label":"executed","offset":0,"slot":"3","type":"t_bool"},{"astId":154,"contract":"contracts/PolygonDAO.sol:PolygonDAO","label":"yesVotes","offset":0,"slot":"4","type":"t_uint256"},{"astId":156,"contract":"contracts/PolygonDAO.sol:PolygonDAO","label":"noVotes","offset":0,"slot":"5","type":"t_uint256"},{"astId":159,"contract":"contracts/PolygonDAO.sol:PolygonDAO","label":"voters","offset":0,"slot":"6","type":"t_array(t_address)dyn_storage"},{"astId":162,"contract":"contracts/PolygonDAO.sol:PolygonDAO","label":"votes","offset":0,"slot":"7","type":"t_array(t_bool)dyn_storage"}],"numberOfBytes":"256"},"t_uint256":{"encoding":"inplace","label":"uint256","numberOfBytes":"32"}}},"userdoc":{"kind":"user","methods":{},"version":1}}}}